:060000000A128A11F02F24
:1000160083120313A9002908FD007D08A800A51F67
:1000260024282D30FD00290884007D0883138000D4
:100036000130FD007D08A907A409A509A40A031932
:10004600A50A2508F9002408F8002708FB00260859
:10005600FA0029080A128A113120080083120313B4
:10006600A3007908A1007808A0007B08F1007A08AF
:10007600F0002108F3002008F2000A128A15C125B3
:100086000A128A11710883120313A1007008A000D6
:100096000130FC007C08A30720082104031D382832
:1000A60023088400831380010130A3027B08F1003A
:1000B6007A08F0007908F3007808F2000A128A1527
:1000C60056250A128A117008FC007C088312031355
:1000D600A2007B08F1007A08F0007908F30078089E
:1000E600F2000A128A15C1250A128A117108F9004E
:1000F6007008F8000A30831203132202031C8728B3
:100106000730FC007C08A2073030FC007C08A20700
:100116002208FC00230884007C0883138000013039
:10012600A30278087904031D59280130FC007C08D5
:10013600A30708000730831603139C0006309F00B0
:1001460006148610061106128612061386138901F6
:10015600831203130910891009118316031305145A
:1001660085100515851583120313861006110612D0
:10017600861206138613851083160313071445305B
:100186008400A03083120313AD000408AE000E30C5
:10019600AF002D08840083130008B000AD0A2E08B6
:1001A600840030088000AE0AAF0BCC2853308400A0
:1001B600AE30AD000408AE000C30AF002D08840050
:1001C60083130008B000AD0A2E08840030088000B2
:1001D600AE0AAF0BE128E701E8010630AF001330A5
:1001E600AE00B130AD00AD0BF628AE0BF628AF0B66
:1001F600F628FD288316031388010A128A15842619
:100206000A128A11F401F40A01300A128A153A26F2
:100216000A128A110130F5008030F6000A128A159A
:10022600FD250A128A1183120313051CB029023018
:10023600AF008630AE009930AD00AD0B2029AE0B75
:100246002029AF0B202983120313051CB029033084
:10025600AF000830AE007830AD00AD0B3029AE0BE4
:100266003029AF0B3029831203138514E601DF0111
:100276005F08031DAF296608AD002D07453E8400C3
:1002860083130008AE00840A0008AF002E082F046E
:10029600031D622966080A128A1160220A128A114F
:1002A600831203136608AD002D07453E8400013016
:1002B60083138000840A00308000DF01DF0A0630E5
:1002C6006606031DAA295408F7005308F6000A1209
:1002D6008A114C240A128A11831203135408E2006D
:1002E6005308E100E4010530640203189829640804
:1002F600AD002D07023E533E840083130008AE0076
:10030600840A0008AF006408B0003007533E84003A
:100316002E088000840A2F0880000130AD002D08C9
:10032600E40705306402031C7A296208DE006108CE
:10033600DD006108AD002D07FE3E453E84008313B7
:100346008001840A8001FF30AD002D08E6000130EF
:10035600AD002D08E6073B2985100519F029013067
:10036600E7070318E80A0030E807F401F40A023048
:100376000A128A153A260A128A118312031368088A
:10038600A5006708A4000A30A6000030A700313097
:100396000A128A110B200A128A113130F500003038
:1003A600F6000A128A15FD250A128A1102308312F6
:1003B6000313AF008630AE009930AD00AD0BE129D6
:1003C600AE0BE129AF0BE129063083120313670652
:1003D6006804031DF029E701E80185191629023092
:1003E600AF000430AE00BA30AD00AD0BF829AE0B4D
:1003F600F829AF0BF8290000831203136808F700E9
:100406006708F6000A128A114C240A128A1183120E
:1004160003136708AD002D07FE3E453E8400831397
:100426008001840A8001E001E3016008031D342A8B
:100436006308AD002D07533E84000008AE00840A11
:100446000008AF0068082F06031D2B2A67082E0632
:10045600031D2F2AE001E00A0130AD002D08E30755
:10046600182A0130E3026308AD002D08E5000530C7
:10047600650203185B2A6508AD002D07023E533E50
:1004860084000008AE00840A0008AF006508B000CA
:100496003007533E84002E088000840A2F0880000F
:1004A6000130AD002D08E50705306502031C3E2A24
:1004B6006808DE006708DD001629F9007908031DC3
:1004C600BB2A831203130915F001F00A4A30F10022
:1004D6000130F20001300A128A15E0260A128A114A
:1004E600F001F00A0030F1000C30F20002300A127E
:1004F6008A15E0260A128A11831203138914091039
:100506000B30F8002630F7006630F600F60B892A25
:10051600F70B892AF80B892A902A8312031389106C
:1005260009100911891009140B30F8002630F7005C
:100536006630F600F60B9D2AF70B9D2AF80B9D2ACE
:10054600A42A83120313891009100230F6007608D4
:10055600F0000030F1000C30F20002300A128A1569
:10056600E0260A128A110A128A15ED240A128A1145
:100576007903031DFB2A831203130915F001F00A00
:100586004A30F1000130F20001300A128A15E026E5
:100596000A128A1183120313891409100B30F8000A
:1005A6002630F7006630F600F60BD72AF70BD72A67
:1005B600F80BD72ADE2A83120313891009100911B2
:1005C600891009140B30F8002630F7006630F60063
:1005D600F60BEB2AF70BEB2AF80BEB2AF22A83121F
:1005E6000313891009100A128A15ED240A128A11BA
:1005F60002307906031D562B831203130915F001E9
:10060600F00A4A30F1000130F20001300A128A1570
:10061600E0260A128A110230F6007608F000003051
:10062600F1000C30F20002300A128A15E0260A1296
:100636008A1183120313891409100B30F80026302F
:10064600F7006630F600F60B262BF70B262BF80B79
:10065600262B2D2B831203138910091009118910DB
:1006660009140B30F8002630F7006630F600F60B5A
:100676003A2BF70B3A2BF80B3A2B412B8312031329
:1006860089100910F001F00A0030F1000C30F20078
:1006960002300A128A15E0260A128A110A128A15EF
:1006A600ED240A128A1103307906031DB12B831239
:1006B60003130915F001F00AAA30F1000030F20028
:1006C60001300A128A15E0260A128A11F001F00A90
:1006D6000030F1000C30F20002300A128A15E026D2
:1006E6000A128A1183120313891409100B30F800B9
:1006F6002630F7006630F600F60B7F2BF70B7F2BC4
:10070600F80B7F2B862B831203138910091009110E
:10071600891009140B30F8002630F7006630F60011
:10072600F60B932BF70B932BF80B932B9A2B831229
:100736000313891009100230F6007608F000003025
:10074600F1000C30F20002300A128A15E0260A1275
:100756008A110A128A15ED240A128A1104307906C2
:10076600031DF22B831203130915F001F00AAA30B8
:10077600F1000030F20001300A128A15E0260A1252
:100786008A1183120313891409100B30F8002630DE
:10079600F7006630F600F60BCE2BF70BCE2BF80BD8
:1007A600CE2BD52B8312031389100910091189103A
:1007B60009140B30F8002630F7006630F600F60B09
:1007C600E22BF70BE22BF80BE22BE92B8312031338
:1007D600891009100A128A15ED240A128A110530A9
:1007E6007906031D0800831203130915F001F00AA8
:1007F600AA30F1000030F20001300A128A15E02614
:100806000A128A110230F6007608F0000030F10074
:100816000C30F20002300A128A15E0260A128A11FA
:1008260083120313891409100B30F8002630F700E1
:100836006630F600F60B1D2CF70B1D2CF80B1D2C45
:10084600242C831203138910091009118910091425
:100856000B30F8002630F7006630F600F60B312C28
:10086600F70B312CF80B312C382C8312031389101B
:100876000910F001F00A0030F1000C30F2000230ED
:100886000A128A15E0260A128A110A128A15ED241E
:10089600080076037704031DE22CF001F00A4A30C3
:1008A600F1000130F20001300A128A15E0260A1220
:1008B6008A11F001F00A0030F1000C30F20002302B
:1008C6000A128A15E0260A128A1183120313891462
:1008D60009100B30FA002630F9006630F800F80BE4
:1008E600722CF90B722CFA0B722C792C83120313CF
:1008F600891009100230F8007808F0000F30F10076
:100906000030F20001300A128A15E0260A128A1116
:10091600831203130915F001F00A0F30F1000030BD
:10092600F20001300A128A15E0260A128A11831291
:100936000313891009140B30FA002630F9006630CB
:10094600F800F80BA42CF90BA42CFA0BA42CAB2C56
:1009560083120313891009100A128A15ED240A124C
:100966008A118312031309110230FA008630F90046
:100976009930F800F80BBD2CF90BBD2CFA0BBD2CE9
:10098600F001F00A1430F1000030F20001300A12D2
:100996008A15E0260A128A110230F8007808F0005B
:1009A6000030F1000C30F20002300A128A15E026FF
:1009B6000A128A110A128A15ED240A128A110230C5
:1009C60076067704031D792DF001F00A4A30F1000E
:1009D6000130F20001300A128A15E0260A128A1145
:1009E60083120313891409100B30FA002630F9001C
:1009F6006630F800F80BFD2CF90BFD2CFA0BFD2CDC
:100A0600042D83120313891009100230F8007808A8
:100A1600F0000F30F1000030F20001300A128A15A2
:100A2600E0260A128A11831203130915F001F00A4F
:100A36000F30F1000030F20001300A128A15E0266C
:100A46000A128A1183120313891009140B30FA0053
:100A56002630F9006630F800F80B2F2DF90B2F2DF4
:100A6600FA0B2F2D362D8312031389100910F0016E
:100A7600F00A0030F1000C30F20002300A128A153A
:100A8600E0260A128A110A128A15ED240A128A1120
:100A96008312031309110230FA008630F9009930E7
:100AA600F800F80B542DF90B542DFA0B542DF001C8
:100AB600F00A1430F1000030F20001300A128A15F3
:100AC600E0260A128A110230F8007808F000003099
:100AD600F1000C30F20002300A128A15E0260A12E2
:100AE6008A110A128A15ED240A128A110330760633
:100AF6007704031D1E2EF001F00A4A30F100013082
:100B0600F20001300A128A15E0260A128A11023012
:100B1600F8007808F0000030F1000C30F2000230E6
:100B26000A128A15E0260A128A11831203138914FF
:100B360009100B30FA002630F9006630F800F80B81
:100B4600A22DF90BA22DFA0BA22DA92D83120313A8
:100B5600891009100230F8007808F0000F30F10013
:100B66000030F20001300A128A15E0260A128A11B4
:100B7600831203130915F001F00A0F30F10000305B
:100B8600F20001300A128A15E0260A128A1183122F
:100B96000313891009140B30FA002630F900663069
:100BA600F800F80BD42DF90BD42DFA0BD42DDB2D30
:100BB6008312031389100910F001F00A0030F100C6
:100BC6001830F20002300A128A15E0260A128A113B
:100BD6000A128A15ED240A128A11831203130911C7
:100BE6000230FA008630F9009930F800F80BF92D3A
:100BF600F90BF92DFA0BF92DF001F00A1430F1007A
:100C06000030F20001300A128A15E0260A128A1113
:100C16000230F8007808F0000030F1000C30F200E5
:100C260002300A128A15E0260A128A110A128A1559
:100C3600ED240A128A11043076067704031DB52EB8
:100C4600F001F00AAA30F1000030F20001300A1279
:100C56008A15E0260A128A11F001F00A0030F10026
:100C66000C30F20002300A128A15E0260A128A11A6
:100C760083120313891409100B30FA002630F90089
:100C86006630F800F80B452EF90B452EFA0B452E6B
:100C96004C2E83120313891009100230F8007808CD
:100CA600F0000F30F1000030F20001300A128A1510
:100CB600E0260A128A11831203130915F001F00ABD
:100CC6000F30F1000030F20001300A128A15E026DA
:100CD6000A128A1183120313891009140B30FA00C1
:100CE6002630F9006630F800F80B772EF90B772ED0
:100CF600FA0B772E7E2E83120313891009100A121F
:100D06008A15ED240A128A1183120313091102307F
:100D1600FA008630F9009930F800F80B902EF90B9E
:100D2600902EFA0B902EF001F00A1430F1000030EC
:100D3600F20001300A128A15E0260A128A110230E0
:100D4600F8007808F0000030F1000C30F2000230B4
:100D56000A128A15E0260A128A110A128A15ED2449
:100D66000A128A11053076067704031D4C2FF0010E
:100D7600F00AAA30F1000030F20001300A128A159A
:100D8600E0260A128A1183120313891409100B3004
:100D9600FA002630F9006630F800F80BD02EF90B71
:100DA600D02EFA0BD02ED72E8312031389100910DA
:100DB6000230F8007808F0000F30F1000030F20041
:100DC60001300A128A15E0260A128A1183120313C9
:100DD6000915F001F00A0F30F1000030F200013081
:100DE6000A128A15E0260A128A1183120313891041
:100DF60009140B30FA002630F9006630F800F80BBB
:100E0600022FF90B022FFA0B022F092F831203135D
:100E160089100910F001F00A0030F1000C30F200E0
:100E260002300A128A15E0260A128A110A128A1557
:100E3600ED240A128A118312031309110230FA00F3
:100E46008630F9009930F800F80B272FF90B272F79
:100E5600FA0B272FF001F00A1430F1000030F200EF
:100E660001300A128A15E0260A128A110230F800A9
:100E76007808F0000030F1000C30F20002300A125F
:100E86008A15E0260A128A110A128A15ED240A1218
:100E96008A11063076067704031D0800F001F00A71
:100EA600AA30F1000030F20001300A128A15E0265D
:100EB6000A128A110230F8007808F0000030F100BA
:100EC6000C30F20002300A128A15E0260A128A1144
:100ED60083120313891409100B30FA002630F90027
:100EE6006630F800F80B752FF90B752FFA0B752F76
:100EF6007C2F83120313891009100230F80078083A
:100F0600F0000F30F1000030F20001300A128A15AD
:100F1600E0260A128A11831203130915F001F00A5A
:100F26000F30F1000030F20001300A128A15E02677
:100F36000A128A1183120313891009140B30FA005E
:100F46002630F9006630F800F80BA72FF90BA72F0B
:100F5600FA0BA72FAE2F8312031389100910F00185
:100F6600F00A0030F1001830F20002300A128A1539
:100F7600E0260A128A110A128A15ED240A128A112B
:100F86008312031309110230FA008630F9009930F2
:100F9600F800F80BCC2FF90BCC2FFA0BCC2FF00165
:100FA600F00A1430F1000030F20001300A128A15FE
:100FB600E0260A128A110230F8007808F0000030A4
:100FC600F1000C30F20002300A128A15E0260A12ED
:100FD6008A110A128A15ED2408008313BA30FD001F
:100FE6000D30FE003C30FF00A03084000A128A1546
:100FF600FB2483010A128A119D28FF1B0A288313EA
:101006007F1883170008840A0319FF0A08000830AE
:101016008A000408840A82070034533445344C3469
:1010260045344334543420344E344F3454344934E4
:0610360043344534003490
:1019DA0083120313071CF42C86100615ED2C8610AF
:1019EA00061108007E088A007F088200F7240A127E
:1019FA008A158000840A04087D0603190034FF0A48
:101A0A000319FE0AFB2CF000701C0F2D831203131E
:101A1A000816122D831203130812F01C162D8816AD
:101A2A00172D8812701D1B2D08171C2D0813F01D69
:101A3A00202D8817080088130800F3008312031367
:101A4A00081173080A128A1508250A128A158312C0
:101A5A00031388153430F200F130F100F10B332D05
:101A6A00F20B332D382D831203138811080000342A
:101A7A0000340034003400340034003400340034BC
:101A8A0000340034003401340034013400340234A8
:101A9A00003403340034043400340534003406348A
:101AAA000034700871040319832DF501F50AF11B3E
:101ABA006A2D01300310F00DF10DFF3E031D5F2D5D
:101ACA000130F4007408F5075C2D71087302031DD8
:101ADA00702D70087202031C782D7008F2027108CA
:101AEA00031CF303F30201300310F10CF00CFF3E68
:101AFA00031D792D0130F502031D6A2D7308F100CB
:101B0A007208F0000800F40074080F39F100710837
:101B1A00F2007408F039F1007108F300831203131C
:101B2A0008157308F10004300310F10CFF3E031D81
:101B3A00992D71080A128A1508250A128A15831224
:101B4A00031388151A30F100F10BA92D0000831236
:101B5A000313881172080A128A1508250A128A15AF
:101B6A008312031388151A30F100F10BBA2D000005
:101B7A008312031388110800F501F6017008710435
:101B8A000319F82DF701F70AF11BD72D01300310BD
:101B9A00F00DF10DFF3E031DCC2D0130F400740849
:101BAA00F707C92D01300310F50DF60DFF3E031D91
:101BBA00D82D71087302031DE42D70087202031CEC
:101BCA00ED2D7008F2027108031CF303F302751479
:101BDA0001300310F10CF00CFF3E031DEE2D013015
:101BEA00F702031DD72D7608F1007508F0000800EA
:101BFA00FA01FB017A087507F8007608F70003185E
:101C0A00F70AFA1BF7037708F90079088312031316
:101C1A00FF00780884000A128A1500200A128A1521
:101C2A00003A031908007A087507F8007608F700E1
:101C3A000318F70AFA1BF7037708F90079088312E1
:101C4A000313FF00780884000A128A1500200A127A
:101C5A008A150A128A1588250A128A150130FA0786
:101C6A000318FB0A0030FB07FF2DF7007703031D5B
:101C7A005F2E74087F3EF5007508FA007A08F500B1
:101C8A0004300310F50CFF3E031D462E7508F600BE
:101C9A007608F8007A080F39F5007508F90078080F
:101CAA000A128A1522250A128A1579080A128A1531
:101CBA002225080002307706031D08007408BF3E7B
:101CCA00F5007508FA007A08F50004300310F50CDF
:101CDA00FF3E031D6B2E7508F6007608F8007A0899
:101CEA000F39F5007508F90078080A128A152225B5
:101CFA000A128A1579080A128A1522250800003064
:101D0A000A128A1508250A128A154130F500EE30A2
:101D1A00F400F40B8E2EF50B8E2E000003300A12FF
:101D2A008A1522250A128A151A30F500F830F400AD
:101D3A00F40B9D2EF50B9D2E000003300A128A1516
:101D4A0022250A128A152130F5007630F400F40BA8
:101D5A00AC2EF50BAC2E000003300A128A15222590
:101D6A000A128A1502300A128A1522250A128A15BF
:101D7A0002300A128A1522250A128A1508300A1216
:101D8A008A1522250A128A1500300A128A15222576
:101D9A000A128A150C300A128A1522250A128A1585
:101DAA0000300A128A1522250A128A1506300A12EA
:101DBA008A152225080083120313A0002003031D9D
:101DCA004D2F7003031D1B2FA101A201A901720847
:101DDA00F4007108F3000310F30DF40D2208803AA1
:101DEA00F5007408803A7502031DFD2E730821025E
:101DFA000318162F831203138614061100300618CF
:101E0A000130AB002B0829060319EC2E0130A1077B
:101E1A000318A20A0030A2072B08F3007308A900CE
:101E2A00EC2E83120313861006110800A301A401E5
:101E3A00AA017208F4007108F3000310F30DF40DFF
:101E4A002408803AF5007408803A7502031D2F2F82
:101E5A00730823020318482F8312031386100615EA
:101E6A00003006180130AC002C082A0603191E2F70
:101E7A000130A3070318A40A0030A4072C08F300B2
:101E8A007308AA001E2F8312031386100611080076
:101E9A007003031DA82FA501A6012608803AF300A6
:101EAA007208803A7302031D5C2F71082502031819
:101EBA00A32F8312031306168616061386130330FE
:101ECA00F4009730F300F30B682FF40B682F6D2F93
:101EDA008312031306128616061786130330F400BC
:101EEA009730F300F30B772FF40B772F7C2F8312A5
:101EFA00031306128612061786170330F40097306A
:101F0A00F300F30B862FF40B862F8B2F8312031308
:101F1A0006168612061386170330F4009730F3006C
:101F2A00F30B952FF40B952F9A2F0130831203137D
:101F3A00A5070318A60A0030A607522F8312031317
:101F4A00061286130800A701A8012808803AF300A0
:101F5A007208803A7302031DB42F7108270203180E
:101F6A00FB2F8312031306168612061386170330F5
:101F7A00F4009730F300F30BC02FF40BC02FC52FDA
:101F8A008312031306128612061786170330F4000B
:101F9A009730F300F30BCF2FF40BCF2FD42F8312EC
:101FAA00031306128616061786130330F4009730B9
:101FBA00F300F30BDE2FF40BDE2FE32F8312031350
:101FCA0006168616061386130330F4009730F300BC
:101FDA00F30BED2FF40BED2FF22F013083120313C5
:101FEA00A7070318A80A0030A807AA2F8312031309
:061FFA0006128612080029
:02400E00723FFF
:00000001FF
